{
  "_format": "hh-sol-artifact-1",
  "contractName": "WalletVault",
  "sourceName": "contracts/WalletVault.sol",
  "abi": [
    {
      "inputs": [],
      "stateMutability": "nonpayable",
      "type": "constructor"
    },
    {
      "inputs": [],
      "name": "InvalidAmount",
      "type": "error"
    },
    {
      "inputs": [],
      "name": "InvalidRecipient",
      "type": "error"
    },
    {
      "inputs": [],
      "name": "NotOwner",
      "type": "error"
    },
    {
      "anonymous": false,
      "inputs": [
        {
          "indexed": true,
          "internalType": "address",
          "name": "from",
          "type": "address"
        },
        {
          "indexed": false,
          "internalType": "uint256",
          "name": "amount",
          "type": "uint256"
        }
      ],
      "name": "Deposit",
      "type": "event"
    },
    {
      "anonymous": false,
      "inputs": [
        {
          "indexed": true,
          "internalType": "address",
          "name": "to",
          "type": "address"
        },
        {
          "indexed": false,
          "internalType": "uint256",
          "name": "amount",
          "type": "uint256"
        },
        {
          "indexed": false,
          "internalType": "bytes32",
          "name": "transferRef",
          "type": "bytes32"
        }
      ],
      "name": "TransferExecuted",
      "type": "event"
    },
    {
      "inputs": [],
      "name": "getBalance",
      "outputs": [
        {
          "internalType": "uint256",
          "name": "",
          "type": "uint256"
        }
      ],
      "stateMutability": "view",
      "type": "function"
    },
    {
      "inputs": [],
      "name": "owner",
      "outputs": [
        {
          "internalType": "address",
          "name": "",
          "type": "address"
        }
      ],
      "stateMutability": "view",
      "type": "function"
    },
    {
      "inputs": [
        {
          "internalType": "address payable",
          "name": "to",
          "type": "address"
        },
        {
          "internalType": "uint256",
          "name": "amount",
          "type": "uint256"
        },
        {
          "internalType": "bytes32",
          "name": "transferRef",
          "type": "bytes32"
        }
      ],
      "name": "transferETH",
      "outputs": [],
      "stateMutability": "nonpayable",
      "type": "function"
    },
    {
      "stateMutability": "payable",
      "type": "receive"
    }
  ],
  "bytecode": "0x60a060405234801561001057600080fd5b503373ffffffffffffffffffffffffffffffffffffffff1660808173ffffffffffffffffffffffffffffffffffffffff168152505060805161061d6100676000396000818161011b015261013f015261061d6000f3fe6080604052600436106100385760003560e01c806312065fe0146100925780638da5cb5b146100bd578063e3a3cf74146100e85761008d565b3661008d573373ffffffffffffffffffffffffffffffffffffffff167fe1fffcc4923d04b559f4d29a8bfc6cda04eb5b0d3c460751c2402c5c5cc9109c34604051610083919061037d565b60405180910390a2005b600080fd5b34801561009e57600080fd5b506100a7610111565b6040516100b4919061037d565b60405180910390f35b3480156100c957600080fd5b506100d2610119565b6040516100df91906103d9565b60405180910390f35b3480156100f457600080fd5b5061010f600480360381019061010a9190610499565b61013d565b005b600047905090565b7f000000000000000000000000000000000000000000000000000000000000000081565b7f000000000000000000000000000000000000000000000000000000000000000073ffffffffffffffffffffffffffffffffffffffff163373ffffffffffffffffffffffffffffffffffffffff16146101c2576040517f30cd747100000000000000000000000000000000000000000000000000000000815260040160405180910390fd5b600073ffffffffffffffffffffffffffffffffffffffff168373ffffffffffffffffffffffffffffffffffffffff1603610228576040517f9c8d2cd200000000000000000000000000000000000000000000000000000000815260040160405180910390fd5b60008203610262576040517f2c5211c600000000000000000000000000000000000000000000000000000000815260040160405180910390fd5b60008373ffffffffffffffffffffffffffffffffffffffff16836040516102889061051d565b60006040518083038185875af1925050503d80600081146102c5576040519150601f19603f3d011682016040523d82523d6000602084013e6102ca565b606091505b505090508061030e576040517f08c379a00000000000000000000000000000000000000000000000000000000081526004016103059061058f565b60405180910390fd5b8373ffffffffffffffffffffffffffffffffffffffff167f6eb822c246c0021523c4209516767730f4b9260f24858135daa61b0377568fd284846040516103569291906105be565b60405180910390a250505050565b6000819050919050565b61037781610364565b82525050565b6000602082019050610392600083018461036e565b92915050565b600073ffffffffffffffffffffffffffffffffffffffff82169050919050565b60006103c382610398565b9050919050565b6103d3816103b8565b82525050565b60006020820190506103ee60008301846103ca565b92915050565b600080fd5b600061040482610398565b9050919050565b610414816103f9565b811461041f57600080fd5b50565b6000813590506104318161040b565b92915050565b61044081610364565b811461044b57600080fd5b50565b60008135905061045d81610437565b92915050565b6000819050919050565b61047681610463565b811461048157600080fd5b50565b6000813590506104938161046d565b92915050565b6000806000606084860312156104b2576104b16103f4565b5b60006104c086828701610422565b93505060206104d18682870161044e565b92505060406104e286828701610484565b9150509250925092565b600081905092915050565b50565b60006105076000836104ec565b9150610512826104f7565b600082019050919050565b6000610528826104fa565b9150819050919050565b600082825260208201905092915050565b7f5472616e73666572206661696c65640000000000000000000000000000000000600082015250565b6000610579600f83610532565b915061058482610543565b602082019050919050565b600060208201905081810360008301526105a88161056c565b9050919050565b6105b881610463565b82525050565b60006040820190506105d3600083018561036e565b6105e060208301846105af565b939250505056fea2646970667358221220e7c083843a6c184ac3f58ac01622064410cb8456f97d6fda86d6a153f0bced3e64736f6c63430008180033",
  "linkReferences": {},
  "deployedLinkReferences": {}
}